:040000008A110F282A
:10000800FE00030E83120313CB000A08CC007F08FE
:10001800CD008A11382D8A11112883134E3084009F
:100028006D308A1522258A11E0308400F0308A1557
:1000380022258A1183172030840038308A1522251A
:100048008A1183018A11C62B831603133508803958
:10005800BF003508B6003607C600B41F3428352857
:1000680036284614460803193A283B284B28460ADE
:10007800031D3F28402848280030B5000030B40050
:100088000030B3000030B200B417B5015328003077
:10009800B5000030B4000030B3000030B2003108C1
:1000A8008039FF007F08BF063108B6003607C70051
:1000B800B01F5F286028612847144708031965287E
:1000C80066287628470A031D6A286B28732800309B
:1000D800B1000030B0000030AF000030AE00B01703
:1000E800B1017E280030B1000030B0000030AF0010
:1000F8000030AE00310830042F042E04031D85287B
:1001080086289F280030B5000030B4000030B300C6
:100118000030B2008030B4047F30B5043F08FF00DF
:100128007F08B5043508B1003408B0003308AF00C3
:100138003208AE00F6294608031DA328A428AD28D6
:100148000030B1000030B0000030AF000030AE0029
:10015800F6294608B600B7013708B900470836023D
:10016800B800031CB90338087F3EC00039080318DB
:10017800013E003EC1003508BE003408BD0033080A
:10018800BC003208BB000030B5000030B4000030BD
:10019800B3000030B2000030C5000030C4000030A9
:1001A800C3000030C200C701232947080319DD280E
:1001B800DE28FE280130B6000310BB0DBC0DBD0DB6
:1001C800BE0DB60BE0280130B6000310B20DB30D1A
:1001D800B40DB50DB60BE928C51FF328F428F5288A
:1001E80032140130B6000310C20DC30DC40DC50D85
:1001F800B60BF72831083E02031D0C2930083D02D2
:10020800031D0C292F083C02031D0C292E083B0254
:10021800031C0F2910291F2945172E08BB022F0878
:10022800031C2F0FBC023008031C300FBD0231081D
:10023800031C310FBE020130FF007F08C7071A30C8
:100248004702031C28292929D9283E083D043C04D3
:100258003B0403193029312950294214502901300F
:10026800B6000310B20DB30DB40DB50DB60B35299C
:10027800C51F3F294029412932140130B600031017
:10028800C20DC30DC40DC50DB60B4329FF30C00701
:100298000318C10AFF30C107B41F53295429332951
:1002A800C701C51F582959297529FF304205B600CD
:1002B800FF304305B700FF304405B8007F304505DF
:1002C800B900390838043704360403196C296D2934
:1002D8007029C701C70A7529321C73297429752921
:1002E8006D294708031979297A29AB290130B20702
:1002F800003003180130B307003003180130B40789
:10030800003003180130B507351C8B298C29AB291F
:100318003208B6003308B7003408B8003508B90009
:100328000130BA00390DB90CB80CB70CB60CBA0BC1
:1003380096293908B5003808B4003708B3003608DC
:10034800B2000130C0070318C10A0030C1074108D4
:10035800803AFF0080307F02031DB429FF3040023D
:10036800031CB729B829C629FF3083160313C00018
:100378000030C1000030B5000030B4000030B300D8
:100388000030B200831603134108803AFF00803022
:100398007F02031DD129013040020318D429D52931
:1003A800E22983160313C001C1010030B5000030F3
:1003B800B4000030B3000030B200BF01831603134D
:1003C8004008C600461CE929EA29EC29B417F02997
:1003D8007F30FF007F08B4054608B6000310360CCE
:1003E800B500922808008312031327088039B1004A
:1003F8002708A8002807B800A61F032A042A052AE8
:10040800381438080319092A0A2A1A2A380A031D2F
:100418000E2A0F2A172A0030A7000030A600003045
:10042800A5000030A400A617A701222A0030A700C3
:100438000030A6000030A5000030A4002308803951
:10044800FF007F08B1062308A8002807B900A21FEB
:100458002E2A2F2A302A391439080319342A352A22
:10046800452A390A031D392A3A2A422A0030A300AC
:100478000030A2000030A1000030A000A217A301A4
:100488004D2A0030A3000030A2000030A100003047
:10049800A0002308220421042004031D542A552AFD
:1004A8006E2A0030A7000030A6000030A5000030FA
:1004B800A4008030A6047F30A7043108FF007F081D
:1004C800A7042708A3002608A2002508A1002408DD
:1004D800A000C52B3808031D722A732A7C2A003015
:1004E800A3000030A2000030A1000030A000C52BFE
:1004F8003808A800A9012908AB0039082802AA0071
:10050800031CAB032A087F3EB2002B080318013EE8
:10051800003EB3002708B0002608AF002508AE004B
:100528002408AD000030A7000030A6000030A50068
:100538000030A4000030B7000030B6000030B5002D
:100548000030B400B901F22A39080319AC2AAD2ADF
:10055800CD2A0130A8000310AD0DAE0DAF0DB00DC2
:10056800A80BAF2A0130A8000310A40DA50DA60DF5
:10057800A70DA80BB82AB71FC22AC32AC42A241455
:100588000130A8000310B40DB50DB60DB70DA80BBA
:10059800C62A23083002031DDB2A22082F02031D66
:1005A800DB2A21082E02031DDB2A20082D02031C4A
:1005B800DE2ADF2AEE2A37172008AD022108031C9D
:1005C800210FAE022208031C220FAF022308031CCE
:1005D800230FB0020130FF007F08B9071A30390233
:1005E800031CF72AF82AA82A30082F042E042D0401
:1005F8000319FF2A002B1F2B34141F2B0130A800CE
:100608000310A40DA50DA60DA70DA80B042BB71F4D
:100618000E2B0F2B102B24140130A8000310B40D3F
:10062800B50DB60DB70DA80B122BFF30B207031886
:10063800B30AFF30B307A61F222B232B022BB901C5
:10064800B71F272B282B442BFF303405A800FF3079
:100658003505A900FF303605AA007F303705AB0005
:100668002B082A042904280403193B2B3C2B3F2B75
:10067800B901B90A442B241C422B432B442B3C2B95
:1006880039080319482B492B7A2B0130A40700306D
:1006980003180130A507003003180130A607003001
:1006A80003180130A707271C5A2B5B2B7A2B240829
:1006B800A8002508A9002608AA002708AB000130D1
:1006C800AC002B0DAB0CAA0CA90CA80CAC0B652B21
:1006D8002B08A7002A08A6002908A5002808A400B6
:1006E8000130B2070318B30A0030B3073308803A61
:1006F800FF0080307F02031D832BFF303202031C72
:10070800862B872B952BFF3083120313B200003002
:10071800B3000030A7000030A6000030A50000306C
:10072800A400831203133308803AFF0080307F024D
:10073800031DA02B013032020318A32BA42BB12BCD
:1007480083120313B201B3010030A7000030A600E2
:100758000030A5000030A400B10183120313320851
:10076800B800381CB82BB92BBB2BA617BF2B7F3072
:10077800FF007F08A6053808A8000310280CA7006A
:10078800612A0800831603130510851005158511C5
:100798000512851206128612061386138312031396
:1007A80006128316031307108710071187150712FF
:1007B800871207178713831203130715831203176A
:1007C8001E109E101E119E111E129E121E139E13A5
:1007D8001F109F101F119F110B178B1783160313E0
:1007E80001170B168B108312031381018316031351
:1007F800811601148114011581118B160B118312B6
:10080800031310108E018F0190101012901283168E
:1008180003130C14831203130C1012149210921168
:10082800121292121213121197151715971017100A
:100838007C308316031392008312031312150B30B6
:1008480083160313DF002630DE005D30DD00DD0B8C
:100858002B2CDE0B2B2CDF0B2B2C000000308316EF
:100868000313A000A1008A1576258A1183160313A5
:10087800E401E50183120313061386128A15532730
:100888008A1183120313061386124A2C8A150B2623
:100898008A11831603135308E5005208E4006D0813
:1008A800803ADD006508803A5D02031D5D2C64080E
:1008B8006C02031C602C612C2C2D83120313E201A3
:1008C800E30183160313E801E9010530EA0000306B
:1008D800EB008312031381010B118316031381129A
:1008E8006A086B04031D792C7A2C742C8312031369
:1008F8006208FB3EE20063080318013EFF3EE30086
:10090800620883160313680783120313E40063085D
:100918000318630A83160313690783120313E50098
:10092800650883160313A100831203136408831652
:100938000313A0000530A2000030A3008A154F253C
:100948008A11831603132108E7002008E6000A30FD
:10095800A0000030A1006708A3006608A2008A155D
:1009680072268A11831603132108E7002008E6007F
:100978006908803ADD006708803A5D02031DC62CCD
:1009880066086802031CC92CCA2C1F2D8312031386
:10099800E201E30183160313E801E9010530EA00E7
:1009A8000030EB00831203130617061682308316F5
:1009B8000313DE00DD30DD00DD0BE02CDE0BE02C68
:1009C800000083120313061383160313E201E301E5
:1009D80062080239DD00DD0EDD0D831203131708EE
:1009E800831603135D06DF395D0683120313970030
:1009F8008316031362080139DD00DD0E8312031329
:100A08001708831603135D06EF395D068312031377
:100A18009700831603136308DE006208DD005E0D8D
:100A2800DE0CDD0C5E0DDE0CDD0C5D08831203139D
:100A3800950006124A2C83120313E201E301831680
:100A48000313E801E9010530EA000030EB004A2C05
:100A580083120313871D312D322D4A2C8A155327F3
:100A68008A114A2C8A110F280B1D3B2D3C2D072E6D
:100A78008A15AA258A1183120313450883160313BE
:100A8800E50083120313440883160313E4006D087A
:100A9800803A83120313C900831603136508803A4A
:100AA800831203134902031D5D2D83160313640883
:100AB8006C02031C602D612D712D01308316031308
:100AC800E8070318E90A0030E9070530EA000030B2
:100AD800EB00C830E2000030E300831603136D0812
:100AE800803A83120313C900831603136508803AFA
:100AF800831203134902031D852D8316031364080B
:100B08006C020318882D892DB52D831603136F08E1
:100B1800803A83120313C900831603136508803AC9
:100B2800831203134902031D9D2D831603136408C2
:100B38006E02031CA02DA12DB52D013083120313C5
:100B4800E2070318E30A0030E307FF3083160313B4
:100B5800EA070318EB0AFF30EB073230E2000030F7
:100B6800E300831603136508803A83120313C90050
:100B78006908803A4902031DC52D680883160313C6
:100B880064020318C82DC92DCF2D90308316031386
:100B9800E2000130E300831603136A086B04031DA7
:100BA800D62DD72DD92D81160B1162080239831243
:100BB8000313C900C90EC90D17084906DF394906CC
:100BC8009700831603136208013983120313C900BF
:100BD800C90E17084906EF3949069700831603130B
:100BE800630883120313CA0083160313620883126F
:100BF8000313C9004A0DCA0CC90C4A0DCA0CC90C0A
:100C0800490895000B114D08FF004C088A004B0E4F
:100C18008300FE0E7E0E090083160313A800280821
:100C28000319172E182E2C2EA31F1B2E1C2E2C2E0C
:100C38002009AA002109AB002209AC002309AD0054
:100C4800AA0A0319AB0A0319AC0A0319AD0A342E10
:100C58002308AD002208AC002108AB002008AA0038
:100C68002308220421042004031D3B2E3C2E452E7C
:100C78000030A3000030A2000030A1000030A00026
:100C8800C92E9630A900552E0130FF007F08A9070C
:100C980001300310AD0CAC0CAB0CAA0CFF3E031DCD
:100CA8004D2EFE302D05031D5A2E5B2E482E772E15
:100CB8000130FF007F08A9070130AA070030031898
:100CC8000130AB07003003180130AC0700300318BF
:100CD8000130AD0701300310AD0CAC0CAB0CAA0C05
:100CE800FF3E031D6F2EFF302D05031D7C2E7D2E2C
:100CF8005C2E892E0130A9020130A4000310AA0D30
:100D0800AB0DAC0DAD0DA40B822EAC1B8C2E8D2E15
:100D1800932E023029020318922E932E7E2E291824
:100D2800962E972E9F2EFF30AA05FF30AB057F30F9
:100D3800AC05FF30AD050310A90C2908A400A501D6
:100D4800A601A70118300310A40DA50DA60DA70D27
:100D5800FF3E031DA72E2408AA042508AB04260875
:100D6800AC042708AD0428080319BB2EBC2EC12EDD
:100D7800A31FBF2EC02EC12EAD172D08A3002C080F
:100D8800A2002B08A1002A08A0000800F800780893
:100D98000319CF2ED02EE42EF31FD32ED42EE42EFB
:100DA8007009FA007109FB007209FC007309FD0063
:100DB800FA0A0319FB0A0319FC0A0319FD0AEC2EA7
:100DC8007308FD007208FC007108FB007008FA0047
:100DD8007308720471047004031DF32EF42EFD2EA3
:100DE8000030F3000030F2000030F1000030F00075
:100DF800812F9630F9000D2F0130FF007F08F90789
:100E080001300310FD0CFC0CFB0CFA0CFF3E031D1B
:100E1800052FFE307D05031D122F132F002F2F2FB6
:100E28000130FF007F08F9070130FA070030031886
:100E38000130FB07003003180130FC0700300318AD
:100E48000130FD0701300310FD0CFC0CFB0CFA0C03
:100E5800FF3E031D272FFF307D05031D342F352F3F
:100E6800142F412F0130F9020130F4000310FA0D5C
:100E7800FB0DFC0DFD0DF40B3A2FFC1B442F452FE9
:100E88004B2F0230790203184A2F4B2F362F79182F
:100E98004E2F4F2F572FFF30FA05FF30FB057F30BD
:100EA800FC05FF30FD050310F90C7908F400F50185
:100EB800F601F70118300310F40DF50DF60DF70DD6
:100EC800FF3E031D5F2F7408FA047508FB047608BB
:100ED800FC047708FD0478080319732F742F792F01
:100EE800F31F772F782F792FFD177D08F3007C08E3
:100EF800F2007B08F1007A08F0000800031083165E
:100F080003134A0D4B0DD1005108031D8C2F8D2F53
:100F1800962F0030CB000030CA000030C9000030E6
:100F2800C800F92F4808CC004908CD004A08CE006F
:100F38004B08CF001F300310CF0CCE0CCD0CCC0CBF
:100F4800FF3E031D9F2F4C08D000CA17FF30C8056D
:100F5800FF30C905FF30CA050030CB059630D102F5
:100F6800D11FB72FB82FD22F5108803A973E0318B8
:100F7800BE2FBF2FC02F8D2F01300310CB0CCA0CF2
:100F8800C90CC80CFF3E031DC12F0130FF007F08AC
:100F9800D107031DD02FD12FC02FE92F20305102A8
:100FA800031CD72FD82FE42F8D2F0130CC0003102E
:100FB800C80DC90DCA0DCB0DCC0BDB2F0130D102EA
:100FC8005108031DE82FE92FD92F50080319ED2FD9
:100FD800EE2FF92FC809C909CA09CB09C80A03198C
:0C0FE800C90A0319CA0A0319CB0A080041
:101A440064008001840A0406031900340406232D6B
:101A5400F401F501701C2F2D302D362D7208F4077A
:101A64000318F50A7308F50701300310F20DF30D9E
:101A7400FF3E031D372D01300310F10CF00CFF3E27
:101A8400031D3E2D70087104031D492D4A2D2C2D74
:101A94007508F1007408F000080083160313A4010C
:101AA400A501201C562D572D5D2D2208A4070318CF
:101AB400A50A2308A50701300310A20DA30DFF3EBC
:101AC400031D5E2D01300310A10CA00CFF3E031D6D
:101AD400652D20082104031D702D712D532D25081B
:101AE400A1002408A0000800831603136208023929
:101AF400A200A20EA20D8312031317088316031368
:101B04002206DF3922068312031397008316031378
:101B140062080139A200A20E831203131708831668
:101B240003132206EF392206831203139700831648
:101B340003136308A3006208A200230DA30CA20CE4
:101B4400230DA30CA20C2208831203139500080092
:101B5400831203138E018F010716023083120313BD
:101B6400C600C60BB32DB62D831203130712071F2D
:101B7400BC2DBD2DB92D1014071BC12DC22DBE2D9A
:101B840010100E08F0000F08F100F201F30100300C
:101B94008A11CA268A15730883120313A7007208D0
:101BA400A6007108A5007008A4004230A3006B30A1
:101BB400A2004730A100AE30A0008A11F7218A1597
:101BC400831203132308BD002208BC002108BB00B4
:101BD4002008BA008A15DB268A15831203133B08F2
:101BE400C8003A08C7004808F1004708F0000A3066
:101BF400F2000030F3008A152A258A157108831231
:101C04000313C8007008C7004808C5004708C4008B
:101C14000800831203138E018F0107160230831606
:101C24000313D400D40B142E172E8312031307129C
:101C3400071F1D2E1E2E1A2E1014071B222E232EB4
:101C44001F2E10100E0883160313A0008312031313
:101C54000F0883160313A100A201A30100308A1107
:101C640010268A15831603132308B5002208B4002E
:101C74002108B3002008B2004230B1006B30B0003C
:101C84004730AF00AE30AE008A1128208A15831683
:101C940003133108CB003008CA002F08C9002E08EE
:101CA400C8008A1182278A15831603134908D600AF
:101CB4004808D5005608A1005508A0000A30A20023
:101CC4000030A3008A154F258A15831603132108B3
:101CD400D6002008D5005608D3005508D2000800C5
:101CE40083160313A501A11F782E792E802EA00937
:101CF400A109A00A0319A10AA501A50AA31F832EFD
:101D0400842E8D2EA209A309A20A0319A30A013065
:101D1400FF007F08A506A601A701200821040319D6
:101D2400942E952ECC2EA401A40AA32E01300310C8
:101D3400A00DA10DFF3E031D992E0130FF007F0869
:101D4400A407A11FA62EA72E982E01300310A60DBE
:101D5400A70DFF3E031DA82E21082302031DB42E48
:101D640020082202031CB72EB82EBF2E2008A20280
:101D74002108031CA303A302261401300310A10CA1
:101D8400A00CFF3E031DC02E0130A402031DCB2E68
:101D9400CC2EA72E25080319D02ED12ED62EA60977
:101DA400A709A60A0319A70A2708A1002608A00064
:101DB40008000310831203133C0D3D0DC3004308B8
:101DC400031DE52EE62EEF2E0030BD000030BC00D2
:101DD4000030BB000030BA00522F3A08BE003B0866
:101DE400BF003C08C0003D08C1001F300310C10CF7
:101DF400C00CBF0CBE0CFF3E031DF82E3E08C200F3
:101E0400BC17FF30BA05FF30BB05FF30BC050030FE
:101E1400BD059630C302C31F102F112F2B2F43086B
:101E2400803A973E0318172F182F192FE62E0130EA
:101E34000310BD0CBC0CBB0CBA0CFF3E031D1A2FC7
:101E44000130FF007F08C307031D292F2A2F192FF4
:101E5400422F20304302031C302F312F3D2FE62E1A
:101E64000130BE000310BA0DBB0DBC0DBD0DBE0B81
:101E7400342F0130C3024308031D412F422F322F58
:101E840042080319462F472F522FBA09BB09BC0930
:101E9400BD09BA0A0319BB0A0319BC0A0319BD0A0E
:101EA400080083120313861683160313E001E1016D
:101EB4008316031360084E3E84008A150B268A1588
:101EC400831603135208831380000230831603130E
:101ED400D9000430D800BA30D700D70B6F2FD80BF5
:101EE4006F2FD90B6F2F013083160313E0070318EC
:101EF400E10A0030E1076108803AFF0080307F0288
:101F0400031D862F05306002031C892F8A2F5A2F48
:101F1400831203134E084F0783160313D700D80107
:101F2400D80D831203135008831603135707D900DF
:101F34000030031801305807DA00831203135108E4
:101F4400831603135907DB000030031801305A07C6
:101F5400DC00831203135208831603135B07EE009D
:101F64000030031801305C07EF000530A00000309A
:101F7400A1006F08A3006E08A2008A1572268A15B4
:101F8400831603132108EF002008EE006E08043EB8
:101F940083120313E600831603136F080318013E2C
:101FA400003E83120313E700831603136E08FC3EFE
:101FB400EC006F080318013EFF3EED006E08F63E8C
:101FC40083120313E800831603136F080318013EFA
:101FD400FF3E83120313E900023083160313D90072
:101FE4000430D800BA30D700D70BF62FD80BF62F11
:0C1FF400D90BF62F83120313861208008D
:02400E00D53F9C
:00000001FF
